:1000000054C076C36DC06CC06BC06AC069C068C0A4
:1000100067C066C065C064C063C062C061C060C0C4
:100020005FC05EC05DC005010906A101050719E0BA
:1000300029E71500250175019508810295017508CC
:100040002565190029658100C00403090412036FA6
:100050000062006400650076002E006100740016E6
:10006000034E0041004E004F00530045004E005328
:10007000004F0052001201100100000008424231FE
:10008000E1000101020001090222000101008032A9
:100090000904000001030000000921010100012200
:1000A00023000705810308000A0011241FBECFE5C5
:1000B000D2E0DEBFCDBF10E0A0E6B0E0E4E0FAE0C1
:1000C00002C005900D92A436B107D9F710E0A4E65E
:1000D000B0E001C01D92A63BB107E1F7D1D090C4BA
:1000E0008FCF1F93CF93DF93AC018091690088235A
:1000F00009F467C0369965C01092690084B1E82F91
:10010000F0E025B1922F80E0E82BF92B36984115CD
:10011000510511F485E804C04130510561F484E8CB
:1001200087B980E183B9CF0196958795EE0FFF1FC0
:10013000E80FF91F19C04230510521F48FE987B942
:1001400088E0F0CF4330510579F486E887B980E143
:1001500083B9CF019695879596958795F695E795FE
:10016000E80FF91FE35BF040369A8FEF8093790038
:100170001092780088E280937700809160008093ED
:100180007600C4E7D0E017E2CF016AE070E00ED459
:10019000282FCF016AE070E009D4CB01FB0119825E
:1001A000222321F44C2F3D2F188304C04C2F3D2FC8
:1001B000235E28832297892B39F740937A00309366
:1001C0007B00DF91CF911F910895382F08B602FE72
:1001D00026C084E088BF80917C0090917D000196CC
:1001E00090937D0080937C008C529140C0F01092DF
:1001F0007D0010927C0021E020936900369A809166
:100200006400922F981B9093640080917A009091E3
:100210007B00892B21F430936000209365000895C2
:10022000FC0186E690E090939B0080939A00808189
:100230008076803219F58181813079F4E0917A00FD
:10024000F0917B00309711F480E001C08081109222
:1002500066008093670082E00895823041F488E66A
:1002600090E090939B0080939A0081E008958A30FB
:1002700029F483818093680080E0089580E00895E8
:10028000C398BB9ADE98D698DF98D798DD98D59812
:1002900080E090E09FD38F3F09F081BFBD9A20E0BE
:1002A00043EB51EFCA010197F1F72F5F2431D1F7EA
:1002B000BD982EE088E190E00FB6F894A89581BD36
:1002C0000FBE21BD89E08FBD86E887B987E886B972
:1002D00080E183B9A2D07894A895CDD080918B008D
:1002E00084FF20C0E0917A00F0917B003097D1F03C
:1002F0008081109266008093670086E690E062E05D
:1003000099D0E0917A00F0917B003196F0937B00D8
:10031000E0937A00319781818F3F21F410927B0026
:1003200010927A0080916000803199F0813118F448
:100330008B30F1F409C0873189F08C31C9F480E049
:1003400090E0CFDE8BE00EC081E090E0CADE80E17D
:1003500009C082E090E0C5DE87E104C083E090E060
:10036000C0DE8CE132DF80916400882331F003C06D
:1003700080E090E00895C39AAFCFC398ADCFDF92ED
:10038000EF92FF920F931F93CF93DF9300E060E80B
:10039000D62EEE24FF241D2D100F11BF96D1EC0197
:1003A00089E0C433D8070CF0102FD6940894E11CD0
:1003B000F11C88E0E816F10411F0012FECCF115088
:1003C00011BF1F5FE12EFF240894E11CF11C13C034
:1003D0007CD19C012453394037FF03C030952195CF
:1003E0003F4F2C173D0714F09E0101C011B781B794
:1003F0008F5F81BFE90181B790E0E816F90644F705
:1004000011BF61B780E090E0EDD2DF91CF911F91F5
:100410000F91FF90EF90DF90089585B7836085BFBF
:100420008BB780648BBF8BE480938C008AE58093CC
:100430008B0008951F93DC01162F80918B0084FFA1
:1004400007C080918C0098E8892780938C0003C0B6
:100450008AE580938B00912FEDE8F0E08D918193F8
:100460009150E1F78DE890E0612F2BD11C5F109344
:100470008B001F9108951F93CF93DF9390919C0061
:10048000935097FDA1C020919900809198008D32E2
:1004900009F098C0983009F095C0CCE0D0E0C21BBC
:1004A000D109C056DF4F83EC809380008AE58093AA
:1004B000610010927F008881807621F0CE01B0DE4D
:1004C000282F77C09A81109289008981882321F48E
:1004D00010928A0022E067C0853019F490939D0045
:1004E00061C0863009F04AC08B81813019F485E7FC
:1004F00090E01BC0823041F487E890E090939B002D
:1005000080939A0022E236C08330F9F48A818823EE
:1005100041F489E490E090939B0080939A0024E05A
:1005200029C0813041F48DE490E090939B0080934A
:100530009A0022E11FC08230E1F48FE590E09093B1
:100540009B0080939A0026E115C0813241F489E92D
:1005500090E090939B0080939A0029E00BC0823238
:1005600041F486E290E090939B0080939A0023E20E
:1005700001C020E080E480937F001BC0883021F41C
:1005800021E08FE990E011C0893019F490939F0029
:1005900009C08A3011F421E006C08B3019F48BE4D5
:1005A00080938C0020E089E890E090939B008093FA
:1005B0009A008F81882321F48E81821708F4282FD6
:1005C0002093620010929C008091610084FF49C0DA
:1005D000809162008F3F09F444C0182F893008F0E1
:1005E00018E0811B809362008091800098E8892741
:1005F00080938000112341F120919A0030919B005B
:1006000080917F0086FF0DC0A1E8B0E080E090E01F
:10061000F901E80FF91FE491ED9301961817C1F75E
:1006200008C0912FD901E1E8F0E08D9181939150BC
:10063000E1F71150812F90E01F5F0196820F931F09
:1006400090939B0080939A0081E890E0612F39D0CD
:10065000612F6C5F6C3019F08FEF809362006093B4
:10066000610094E186B3807631F49150D9F710920D
:100670009D001092970010E0992309F411E08091F9
:100680007E00811729F0112309F479DE10937E0092
:10069000DF91CF911F910895A82FB92F80E090E0AE
:1006A00041E050EA609530E009C02D91822797958E
:1006B000879510F084279527305EC8F36F5FA8F305
:1006C0000895EADF8D939D930895A6E088279927E2
:1006D000AA9569F00197E1F3B599FCCFB59BFECFE0
:1006E00081E09927A6B3019611F0A076D9F7089575
:1006F000CF93CFB7CF93C395B59BE9F7B59B0BC00D
:10070000B59B09C0B59B07C0B59B05C0B59B03C091
:10071000B59B01C0D5C00F92DF93C0919900DD2732
:10072000C056DF4F012EB59B03C0DF910F90E6CF7F
:100730002F930F931F934F932FEF4F6F06B305FB2C
:1007400020F95F933F9350E03BE065C016B301266C
:10075000502955FDC89556B3012705FB25F92F7380
:1007600006B3B1F05027102715FB26F906B2223048
:10077000F0F000C016B3012705FB27F90126502928
:1007800006B22430E8F54F77206816B30000F6CFA4
:1007900050274F7D206206B2102F000000C006B324
:1007A00000265029102715FB26F906B2E2CF4F7B11
:1007B00006B3206400C0DACF01265029107606B2B5
:1007C00069F14E7F2160012F16B328C00026502901
:1007D0004D7F06B22260102F29C0012650294B7F81
:1007E00006B22460012F2DC016B301265029477F81
:1007F0002860000006B22EC04F7E06B3206130C0D4
:10080000422706B3499300265029102706B24FEF1E
:1008100015FB20F9297F16B379F2107659F10126DC
:10082000502906B2012705FB21F9237F06B371F297
:10083000002650293150D0F006B2102715FB22F9BE
:10084000277E16B351F201265029012705FB06B277
:1008500023F92F7C49F2000006B3102715FB24F979
:100860000026502906B22F7939F270CF10E41ABF52
:10087000002719C03B503195C31BD04010E41ABF6C
:100880000881033C09F10B34F9F02091970019819C
:10089000110F1213EDCF4A81441F093651F10D3269
:1008A00011F0013E29F700939E003F915F914F9117
:1008B0001F910F912F91DF910F90CAB7C6FD1BCFEB
:1008C000CF91CFBFCF91189520919E00222369F33D
:1008D00010919C00112379F534307AF130939C000B
:1008E00020939800109199003BE0311B30939900C0
:1008F00024C000919C000130F4F40AE54F7049F4E3
:100900003091610034FD1AC000936100C0E8D0E06E
:1009100019C030918B0034FD11C000938B00CCE8DE
:10092000D0E010C0052710E000C021C0052710E06E
:10093000C89508BB14C03AE501C032ED032EC0E0F3
:10094000D0E032E017B31066C59A08B317BB50E683
:1009500020E84FEF20FF052708BB279517951C3F80
:1009600028F700004552B0F720FF0527279508BB60
:1009700017951C3FB8F629913A9561F70F791091B8
:100980009D00110F08BBC250D04011F0109397008A
:1009900010E41ABF006217B31F79402F4F7954E05B
:1009A0005A95F1F708BB17BB48BB7FCFAA1BBB1BEF
:1009B00051E107C0AA1FBB1FA617B70710F0A61B5F
:1009C000B70B881F991F5A95A9F780959095BC0180
:1009D000CD010895E199FECF9FBB8EBBE09A992788
:1009E0008DB30895262FE199FECF1CBA9FBB8EBB15
:1009F0002DBB0FB6F894E29AE19A0FBE01960895C6
:040A0000F894FFCF98
:040A04000B5AFF008A
:00000001FF
